:10000000D00800200D0800000908000009080000C1
:1000100000000000000000000000000000000000E0
:1000200000000000000000000000000009080000BF
:10003000000000000000000009080000090800009E
:10004000090800000908000009080000090800006C
:10005000090800000908000009080000090800005C
:1000600009080000ED000000FD0000000D01000087
:10007000E506000009080000090800000908000062
:1000800009080000090800000908000010B5064C26
:100090002378002B07D1054B002B02D0044800E049
:1000A00000BF0123237010BD3004002000000000B9
:1000B000EC13000008B5084B002B03D00748084993
:1000C00000E000BF07480368002B03D0064B002B5D
:1000D00000D0984708BDC04600000000EC130000A7
:1000E00034040020EC1300000000000008B5024BAF
:1000F0005B680020984708BD4C04002008B5024BFF
:100100009B680120984708BD4C04002008B5024BAD
:10011000DB680220984708BD4C040020002070478F
:10012000002303604C4A42608372C37203734372BC
:100130000372C3610362436283620375437583750F
:10014000C37503764376037443748374C3742C229B
:1001500083542D2283542E2283542F228354302201
:1001600083543122835432228354332283543422E1
:1001700083543522835436228354372283543822C1
:100180008354392283543A2283543B2283543C22A1
:1001900083543D2283543E2283543F228354402281
:1001A0008354412283544222835443228354442261
:1001B0008354452283544622835447228354482241
:1001C0008354492283544A2283544B2283544C2221
:1001D00083544D2283544E2283544F228354502201
:1001E00083545122835452228354532283545422E1
:1001F0008354552283545622835457228354982281
:1002000083548365836799228354C365C3679A22A5
:1002100083540366802283509B2283544366842246
:1002200083509C2283548366882283509D2283546A
:10023000C3668C2283509E2283540367902283508E
:100240009F2283544367942283500121A02281542A
:10025000A12283547047C046FFFFFF00F0B55F4600
:1002600056464D464446F0B48DB0061C0C1C151C79
:10027000081CCE4B9847031CCD4A106A202101432D
:10028000116222681C20910700D5D9E12268D707A6
:1002900000D5D5E11720C74A2968914200D9CFE19E
:1002A0006F68974200D9CBE1E869904200D96BE1D1
:1002B000296A914200D969E16F6A974200D967E1E2
:1002C000A86A904200D965E10022A91898310978FE
:1002D000002902D0072A00DD5EE10132082AF4D1AC
:1002E0002A7C013A51424A41120603926A7C012A51
:1002F00008D180229204039F17430397AA7C012A06
:100300000AD103E0AA7C012A00D08BE18022D2042A
:10031000039F1743039785E1EA7C012A04D18022D9
:100320001205039F17430397A122AA5C002A04D059
:1003300080221201039F174303972F7B0697EF7AC2
:1003400007972A7A511E8A41920004926A7A012AFA
:1003500002D1049F174304972A1C2C32507A032899
:1003600000D921E12C22AF5C0F2F00D91CE12C21F8
:10037000491988463622521993460AA90BAA0292B5
:100380004246B0465E46A146AA469B460AE0321C5B
:10039000707A032800D907E137780A3604310F2F25
:1003A00000D901E13D06F0231B051D4054782404CB
:1003B00093785F1EBB41DB010193D7787B1E9F4181
:1003C000FF00009717797B1E9F413F01BC468002CA
:1003D000C0273F01384005435079032318400543A7
:1003E0002C4390794001602738400443D0790002C3
:1003F000C0239B0018400443107A0003E027FF014C
:100400003840221C0243019B1343009F1F43604658
:1004100007430F60029A9142B9D146464C46554671
:100420005B465146413100270022012080460220D0
:10043000FF308146802040028446A8185030007862
:10044000002809D0072A00D9A8E060469040074359
:100450000878002806D10EE0087800280BD0072A7B
:1004600000D99DE0022803D148469040074302E0AE
:1004700040469040074301320231082ADDD1A9E00D
:10048000802212034146114388460022101CB118F5
:1004900048600432302AFAD1002291467263B26376
:1004A0009B00454A9E503460A023EA5C3C23F254F2
:1004B00009A9AB7A0B701120404B98471120404B93
:1004C0009847782149194E4601229146231C0C1C5D
:1004D0009A46AB1998331B78002B13D04846222339
:1004E0006B4418700023232169440B70236808AA09
:1004F0001370212169440870231C203B1878111CBB
:10050000304A904701360434082EE2D15446079B06
:100510001A0206980303134303990B432360042232
:10052000A3681A42FCD1FF2323710422A3681A4254
:10053000FCD1049A62710A9BE3600B982061A76169
:10054000214AA3681342FCD14146E1631022A3680B
:100550001A42FCD12A6862631C4AA3681342FCD188
:100560006B6823641C3500211948021C8A40A3686B
:100570001342FCD104CD0B1C10339B00E3185A60CE
:1005800001310429F1D10DE0172059E0172057E07F
:10059000172055E0172053E0172051E017204FE0B7
:1005A00017204DE000204BE0172049E01D0100001E
:1005B00000040040FFFFFF008C040020F10F00004A
:1005C000650F0000C9100000400002008000040018
:1005D000000108006A7E1201302111402A7E0720A6
:1005E0000240114388462A7D002A20D080225202F0
:1005F000114388461BE08022920240461043804609
:10060000AA7D002A03D108E0AA7D002A13D0802207
:10061000D2024146114388460DE0EA7D002A00D00F
:100620002EE732E7EA7C012A00D07DE677E66A7D94
:10063000002AE0D1E8E7EA7D002A00D020E724E79D
:100640000DB03CBC90469946A246AB46F0BDC046B4
:10065000920083185960034BD358426B1343436392
:10066000002070470013000038B5041C0D1C006802
:10067000074B984780225201064B1A60AD00064B8B
:10068000EB58A26B1A43A2632268936238BDC0463E
:100690001D01000000E100E000130000F0B5474636
:1006A00080B480000D4BC6583368DB6A726B134010
:1006B000B26B1A4090460024094FE55943462B423D
:1006C00005D033195B68301C98473368DD62043409
:1006D000302CF2D104BC9046F0BDC0468C04002002
:1006E0000013000008B50020014B984708BDC04624
:1006F0009D06000080225204014BDA617047C0461B
:100700000044004130B583B001A900230B708B7009
:100710006A46137001255570937002234B700720B1
:10072000044CA0476B461D7018206946A04703B0D3
:1007300030BDC046E507000070B5AAB01C4B984715
:100740001C4B9847802252041B4B5A611B4C0820BB
:10075000A0470028FBD001AC194E201C311C194BBE
:1007600098470023A3720523E372174B6360174D6C
:10077000281C311C221C164B98472B6802229968B2
:100780000A42FCD1196802220A431A600F4C201C4D
:1007900010490022104B9847201C00210F4B98470E
:1007A00001220F4B1A70BFF35F8F62B6FEE7C0469F
:1007B00005070000F510000000440041410C000056
:1007C0000014004221010000EE020000900400200D
:1007D0005D020000F50600005106000069060000F9
:1007E0000000002000B583B001AB80221A700A78A7
:1007F0005A704A789A708A78DA70191C014B9847B7
:1008000003B000BDC9100000FEE7C04610B5194B8B
:10081000194A9A4203D0194B164A9A4204D3184BEC
:10082000184A9A4210D31BE0174B14480330C01AE1
:1008300080080130800000230E490F4AD458CC5064
:1008400004338342FAD1EAE70E4B1A1D0C490331F7
:10085000891A890889005218002102C39342FCD1E9
:100860000A4BFF210A4A8A439A600A4B98470A4B6F
:100870009847FEE700000020EC1300003004002041
:10088000D0040020300400200400002000ED00E02F
:1008900000000000A1110000390700000C4B1B688C
:1008A000002B10D1EFF31083002B09D172B6BFF3E8
:1008B0005F8F0022074B1A700122054B1A7102E06C
:1008C0000022034B1A71024B1A6801321A607047FA
:1008D0006404002000000020084B1A68013A1A60E6
:1008E0001B68002B09D1054B1B79002B05D0012279
:1008F000034B1A70BFF35F8F62B670476404002029
:100900000000002008B5082834D880001B4B1B5875
:100910009F468020000230E0194B18692DE0194BEA
:10092000186A8005800F184BC340181C25E0144B33
:10093000586922E0124B1B68022018401DD0114953
:100940001022CB681A42FCD00D4B1B685A0713D5F6
:1009500000200E4B98470A4B9B681B041B0C584306
:100960000BE05023074AD35C00205A0705D5044BFF
:10097000D86802E0002000E0054808BD3013000000
:100980006C0400200008004000127A000D100000E6
:10099000006CDC0270B50C4B1C6A017885784078DD
:1009A0000122104080014026B44304432A40D00174
:1009B00080229443221C0243032001400902034881
:1009C00002400A431A6270BD00080040FFFCFFFFAE
:1009D000F0B55F4656464D464446F0B4254A948AE3
:1009E00045780378594259418A4683789C46C178B4
:1009F000884603799946467B077B817B8B468068D6
:100A00001D4B586101235146880004218C43044347
:100A100048461840C00008218C4304434046184013
:100A2000000110218C4304436046184040012021FE
:100A30008C430443181C384080014027BC430443C6
:100A4000181C3040C0018026B443044307202840CE
:100A500000020A4D2C40044359460B401903084834
:100A6000231C03400B4393823CBC90469946A2460C
:100A7000AB46F0BD000800406C040020FFF8FFFF0B
:100A8000FFEFFFFF70B5041CC168037D012B05D18A
:100A9000038A081C191C1F4B9847011CA3681801E6
:100AA0001C4B98470F22024000096578AD0123785E
:100AB000DB011D43EDB2184B44215D541504411E6A
:100AC0000905090D29439964E578ED00A17809032A
:100AD00029432579AD002943A57C032635402943C8
:100AE000258A2D040D4E35402943E67C3602E0254B
:100AF000ED0035402943257D2D0130263540294321
:100B0000D96400011218E06842431209044BDA600C
:100B100070BDC04601110000000800400000FF0742
:100B20006C040020082843D88000224B1B589F46A5
:100B300000203EE0204B196A02220A431A6200207C
:100B400037E01D4B996902220A439A61002030E088
:100B5000194B198A02220A431A82002029E0164BF7
:100B6000998A02220A439A82002022E0134B1968D4
:100B700002220A431A601A68114B1A400E4B9A84DB
:100B8000191C1022CB681A42FCD00C4A91680A4BFF
:100B9000D96251689962126892B29A84002008E082
:100BA000054A4423D05C02210143D154002000E0D7
:100BB0001720704754130000000800406C04002008
:100BC0007FFF0000082832D880001A4B1B589F4630
:100BD000194B1A6A02218A431A62002028E0164B38
:100BE0009A6902218A439A61002021E0124B1A8AF5
:100BF00002218A431A8200201AE00F4B9A8A0221AE
:100C00008A439A82002013E00C4B1A6802218A431F
:100C10001A601A6892B2084B9A84002008E0064ACB
:100C20004423D15C02208143D154002000E01720EE
:100C30007047C04678130000000800406C04002094
:100C4000082820D88000114B1B589F4601201BE02C
:100C5000012310E002230EE010230CE050230C4A85
:100C6000D05C03231840033843425841C0B20BE024
:100C7000082300E00423064AD0681840C01A434203
:100C80005841C0B200E000207047C0469C130000ED
:100C90000008004070B58EB0C222D2003C4B9A6072
:100CA0003C4B5A681E218A4302210A435A600AA813
:100CB000002303708370802212028260C3700122BD
:100CC000027103738373032242704373324B98475C
:100CD0000520324B98472E490222CB681A42FCD09D
:100CE0002B4B998A80220A439A8209A800244470D7
:100CF0000125857004702A4B98470620274EB0477F
:100D0000284B984701956A46547014725472052313
:100D1000137001206946244B98470120234B9847C4
:100D200003A844708470C4700471214B83608023D5
:100D30001B02C36005820475C474847404701D4B67
:100D400098470820B047124850210322435C1340C3
:100D5000032BFBD10E4A4423D05C8021494201433E
:100D6000D154154A002313725372937201220192D7
:100D70006A46537013725372082313700020694639
:100D8000094B98470020094B98470EB070BDC046EC
:100D90000008004000400041D1090000250B000080
:100DA00095090000BD0D0000E10D0000950E00004A
:100DB000006CDC02850A000000040040064B9969C3
:100DC00008220A439A610122044B1A70191C0B78FD
:100DD0001342FCD17047C04600040040000C0040A4
:100DE000F8B5061C071C0D782D0205434B78002B27
:100DF00002D08023DB021D434B7A002B02D08023DC
:100E00001B031D434C68012C17D9631E1C420FD1D4
:100E1000022C06D90223002201325B009C42FBD83F
:100E200000E000221702374380235B031D4304E0E8
:100E30002702374380239B021D430B7A002B02D0ED
:100E400080239B031D430F4A53785BB2002BFBDBCF
:100E50000D4B98470D4B1E700A4A53785BB2002B1E
:100E6000FBDB084B9F601A1C53785BB2002BFBDB4B
:100E7000044B5968802252020A4015435D60044BBE
:100E80009847F8BD000C00409D080000080C004089
:100E9000D908000010B5041C0B4A53785BB2002B34
:100EA000FBDB0A4B98470A4B1C70074A53785BB22E
:100EB000002BFBDB044B5968802252020A435A6024
:100EC000044B984710BDC046000C00409D08000030
:100ED000040C0040D908000070B5041C1A4A53786D
:100EE0005BB2002BFBDB194B9847194B1C70164A61
:100EF00053785BB2002BFBDB134E7068C004C00E4E
:100F0000144B9847051C124B1C707668F602F60FBE
:100F1000114B1C700C4A53785BB2002BFBDB0A4B65
:100F20009C68240AA4B20D4B9847002E07D1012CCF
:100F300007D9281C211C0A4B9847051C01E00134E5
:100F4000E540281C70BDC046000C00409D08000014
:100F5000040C004005090000080C0040D9080000FE
:100F60000111000010B5041C064B9847064B1C707D
:100F7000064B59888022D2010A435A80044B984775
:100F800010BDC0469D080000020C0040000C00404F
:100F9000D908000010B5041C0F4B98470F4B1C706C
:100FA0000F4B58880005000F59880E4A0A405A8096
:100FB00059880D4A0A405A80191C8022D2014B8858
:100FC0001342FCD1064B01025888064A02400A43EC
:100FD0005A80064B984710BD9D080000020C004047
:100FE000000C0040FFF0FFFFFFBFFFFFD90800002B
:100FF00010B50C7824020443024B9847A4B2024B6C
:101000005C8010BD950F0000000C004010B5041C62
:10101000064B9847064B1C70064B5C882405240F32
:10102000054B9847201C054B984710BD9D080000B4
:10103000020C0040000C0040D9080000D90E00004E
:1010400030B5D4780023002C1DD11378802B04D028
:101050001B0680246402234300E000235478022509
:10106000AC430AD19478002C03D18024A4022343FA
:1010700002E0C024E402234341605478013C012C87
:1010800001D8104C23400D042D0CA024E4052C4362
:101090001C4384620D0CD02424062C431C43846220
:1010A000D478002C0CD15C0305D59378012B01D1A9
:1010B000816100E041615378013B012B00D88160E0
:1010C00030BDC046FFFFFBFF08B5031C0A1CC10969
:1010D0000020002903D15809C001044940181F21EC
:1010E0000B4001219940024B984708BD0044004144
:1010F0004110000008B5014B984708BD950C000051
:10110000002934D00123002210B488422CD30124BA
:101110002407A14204D2814202D209011B01F8E74F
:10112000E400A14204D2814202D249005B00F8E708
:10113000884201D3401A1A434C08A04202D3001B34
:101140005C0822438C08A04202D3001B9C08224367
:10115000CC08A04202D3001BDC082243002803D0A5
:101160001B0901D00909E3E7101C10BC70470028D7
:1011700001D00020C04307B4024802A140180290E9
:1011800003BDC046190000000029F0D003B5FFF7E9
:10119000B9FF0EBC4243891A1847C0467047C04683
:1011A00070B50D4E0D4D0024AD1BAD1005D0A30044
:1011B000F35801349847A542F9D100F005F9084EDB
:1011C000084D0024AD1BAD1005D0A300F358013429
:1011D0009847A542F9D170BDD4130000D413000084
:1011E000D4130000DC13000008B5034B002B02D021
:1011F000024800F005F808BD0000000011120000D0
:1012000008B5011C00220020002300F019F808BDD9
:1012100038B5094B094DED1AAD1009D0013DAC00B0
:10122000E41800E0013D23689847043C002DF9D103
:1012300000F0D4F838BDC046E8130000EC130000FD
:10124000F0B54F464646C0B498462B4BA4251B68C4
:101250006D005C5983B0061C0F1C91460193002C55
:1012600044D065681F2D1ADD244B002B02D10120CC
:1012700040421CE0C820400000E000BF041EF6D041
:1012800000254560A42301985B00C05801992060A7
:10129000CC50C4235B00E550C6235B00E550002E14
:1012A0000AD16B1C0235AD00636000202F5103B0E2
:1012B0000CBC90469946F0BDAB00E3188822484626
:1012C0009850C4204000221810680121A94008430A
:1012D00010608422520040469850022EE1D1C6226E
:1012E0005200A318186801431960DAE71C1C4D343A
:1012F000FF345C51B5E7C046C41300000000000095
:1013000001000000020000000400000008000000CE
:1013100000100000002000000040000000800000DD
:1013200000000100000002000000040000000800AE
:101330001809000074090000740900001209000077
:10134000120900002E0900001E09000034090000E7
:1013500062090000500B0000B00B0000B00B000051
:10136000300B0000420B00005E0B0000340B00004D
:101370006C0B0000A00B0000EC0B00002E0C00001A
:101380002E0C00002E0C0000DE0B0000FA0B0000FB
:10139000D00B0000080C00001E0C0000500C0000D8
:1013A000860C0000860C00004C0C0000740C000041
:1013B000540C0000700C0000580C00005C0C000085
:1013C0004300000008000020F8B5C046F8BC08BC87
:1013D0009E467047E9110000B5000000F8B5C04610
:0C13E000F8BC08BC9E4670478D00000061
:1013EC00010000000000000000000000F4020020DA
:1013FC005C030020C403002000000000000000007B
:10140C0000000000000000000000000000000000D0
:10141C00000000000000000000000000C0130000ED
:10142C0000000000000000000000000000000000B0
:10143C0000000000000000000000000000000000A0
:10144C000000000000000000000000000000000090
:10145C000000000000000000000000000000000080
:10146C000000000000000000000000000000000070
:10147C000000000000000000000000000000000060
:10148C000000000000000000000000000000000050
:10149C0001000000000000000E33CDAB34126DE6ED
:1014AC00ECDE05000B000000000000000000000056
:1014BC000000000000000000000000000000000020
:1014CC000000000000000000000000000000000010
:1014DC000000000000000000000000000000000000
:1014EC0000000000000000000000000000000000F0
:00000001FF
